:020000040800F2
:100000005006002045010008052500082D220008A3
:1000100003250008E5200008593200080000000010
:100020000000000000000000000000008D26000815
:10003000E720000800000000812500085127000883
:100040005F0100085F0100085F0100085F01000810
:100050005F0100085F0100085F0100085F01000800
:100060005F0100085F0100085F0100085F010008F0
:100070005F0100085F0100085F0100085F010008E0
:100080005F0100085F0100085F0100085F010008D0
:100090005F0100085F0100085F0100085F010008C0
:1000A0005F0100085F0100085F0100085F010008B0
:1000B0005F0100085F0100085F0100085F010008A0
:1000C0005F0100085F0100085F0100085F01000890
:1000D0005F010008392F0008D52F00085F010008D4
:1000E0005F0100085F0100085F0100085F01000870
:1000F0005F0100085F0100085F0100085F01000860
:100100005F0100085F0100085F0100085F0100084F
:100110005F0100085F0100088D2800085F010008EA
:100120005F0100085F0100085F0100085F0100082F
:10013000DFF80CD000F0B2FC004800474552000840
:10014000500600200648804706480047FEE7FEE7C5
:10015000FEE7FEE7FEE7FEE7FEE7FEE7FEE7FEE777
:1001600055270008310100082DE9F0410024061B45
:10017000254671F1000605DA01240027D0EB0700BF
:1001800067EB0101161E73F1000605DA0027D2EBBA
:100190000702012567EB030300F08AFB86460E4643
:1001A00017469C46AC4204D00025D0EB050E65EB0B
:1001B000010624B10020D2EB000760EB030C70466F
:1001C00031463A466346BDE8F081D2B201E000F81C
:1001D000012B491EFBD270470022F6E710B51346EB
:1001E0000A4604461946FFF7F0FF204610BD30B519
:1001F00004460020034600E05B1C934203D2E05C0F
:10020000CD5C401BF8D030BDF0B480EA0102D40FC1
:100210004200B2EB410F02D20246084611464A00A4
:1002200042D0C30DDDB2C1F3C752AD1A202D35DA6D
:10023000C1F3160141F4000204B15242C5F1200697
:1002400002FA06F12A411044B3EBD05F23D0C4B1C7
:10025000012DA0EBC35009DCF0BC4FF0004202EAD4
:10026000C352DBB200F5000000F08DBB400000F18E
:10027000807000EBC350A0F1807040EAD17049005B
:1002800009E0490841EAC071A0EBC35000F5000045
:10029000400800EBC350F0BC00F06CBB614201228F
:1002A00002EB4101001BF6E7F0BC704781F0004112
:1002B000AAE780F00040A7E780EA010210B502F04B
:1002C0000043400022D04A001FD0010E01EB126112
:1002D000C0F35600C2F3560240F4000042F400029C
:1002E000A0FB022000047F39140400D0401C50EA17
:1002F000124001D44000491EC2B20C0604EBD010DB
:10030000401C4008802A02D003E0002010BD20F0ED
:100310000100002900DA0020184310BD30B480EA43
:10032000010202F0004530F0004221F0004013D0FD
:1003300090B1C30DD40DC2F31601C0F31600E41A38
:1003400041F4000140F400027D34914201D3641C69
:1003500000E04900002C02DA30BC002070474FF466
:1003600000000023914201D3891A034340084FEA59
:100370004101F7D151B1914202D14FF0004105E066
:1003800002D24FF0010101E06FF0010103EBC45014
:10039000284430BC00F0EEBA420005D0C0F3C7528A
:1003A0005242914201DC0020704700EBC15070477F
:1003B0002DE9FE4F804681EA0300C00F0C460090F5
:1003C00021F0004123F00045B8EB0200A94105D21D
:1003D0004046214690461C460B46024623F000400C
:1003E000104347D0270DC7F30A00C3F30A51029008
:1003F000401A019040286BDAC3F3130040F4801BCD
:100400000098924620B10023D2EB030A63EB0B0B5A
:1004100001985946C0F14002504600F07AFA06466B
:100420000D4650465946019A00F092FA10EB08002A
:100430006141002487EA115284EAE7731A4340D0ED
:10044000009A62B3019A012A4FEA075215DC001B99
:1004500061EB02014FF0004202EA0752CDE900428F
:10046000001C41F5801132462B4600F0C9FA03B05A
:10047000BDE8F08F40462146F9E7001B61EB020121
:10048000001C41F5801300185B412018A2F50017ED
:1004900047EB030140EAD570B6196D4111E06D08D4
:1004A0004FEA360645EAC0754FEA0752001B61EB7A
:1004B0000201001C41F5801149084FEA3000001983
:1004C000514132462B4603B0BDE8F04F00F089BAE7
:1004D0000098012240000023D0EB020263EBE0739E
:1004E000009821464FEAE074B8EB000061EB04018C
:1004F000E9E783F000435BE781F0004158E72DE92D
:10050000FE4F81EA030404F0004421F0004100940E
:100510004FF0000B23F0004350EA01045ED052EA92
:1005200003045BD0C3F30A54C1F30A552C44A4F26C
:10053000F3340194A0FB0254C1F3130141F4801180
:10054000C3F3130343F4801301FB024400FB034E87
:10055000840A970A44EA815447EA8357A4FB076850
:1005600002958D0A05FB07854FEA932C04FB0C547A
:100570002705029D4FEA065847EA1637B5EB0805EE
:100580006EEB070C870E920E47EA811742EA831240
:10059000A7FB0201B6EB0B0164EB00042B0D43EA51
:1005A0000C335E1844EB1C50DA465146E7FB02015F
:1005B000C5F313044FEA0B3343EA14534FEA0432F2
:1005C000019C43EA0603A4F10C040294009CCDE9CB
:1005D00000B400F015FA03B0BDE8F08F002001462A
:1005E000F9E72DE9F04D81EA030404F0004B21F016
:1005F000004514464FF0000A23F0004150EA05027E
:1006000020D054EA01021DD0C5F30A570246C5F3B3
:100610001303C1F31300C1F30A5640F4801543F4E9
:100620008013A7EB0608101BD64608F2FD3873EBC3
:10063000050002D308F1010801E092185B41B8F10E
:10064000000F03DA00200146BDE8F08D00204FF4D2
:100650008011064684460EE0171B73EB050705D391
:10066000121B63EB050306434CEA010C49084FEAF1
:10067000300092185B4150EA0107EDD152EA0300C5
:1006800012D082EA040083EA0501084305D0101B5A
:10069000AB4106D20122002306E000224FF00043C6
:1006A00002E06FF0010253101AEB06004CEB085108
:1006B00010EB0A0041EB0B01BDE8F04D00F091B9E1
:1006C00070B521F0004303430CD0C1F30A55002458
:1006D000D5EB040564EB0403D617AD1AB34102DB76
:1006E0000020014670BD201841EB025170BDC10FC2
:1006F00080EAE0700844CA079623002100F043B95D
:1007000096230022114600F03EB90EB5C10F80EAD3
:10071000E0700844CA07002140F233438DE80E0020
:100720000A460B4600F06CF903B000BD00F0004231
:1007300020F00040C10DC0F3160040F400007F29F6
:1007400001DA00207047962903DCC1F19601C84008
:1007500001E096398840002AF4D04042704720F0EA
:100760000040C10DC0F3160040F400007F2901DAFB
:1007700000207047962903DCC1F19601C8407047FC
:1007800096398840704770B5C1F30A5201F00045B0
:100790000024C1F3130140F2FF3341F480119A4267
:1007A00001DA002070BD40F233439A42A2F2334294
:1007B00003DC524200F0BCF800E090402C43F1D042
:1007C000404270BD00F0004230F000400AD0C10D40
:1007D00001F56071C0F3160042EA0151C2084007FA
:1007E00011437047002001467047000030B5041ED9
:1007F00071F1000404DB4FF00044404264EB01015E
:10080000141E73F1000405DB1C464FF000435242F6
:1008100063EB04038B4208BF824230BD30B5041E37
:1008200071F1000404DB4FF00044404264EB01012D
:10083000141E73F1000405DB1C464FF000435242C6
:1008400063EB0403994208BF904230BD01F00043BE
:1008500030B421F0004150EA010206D00A0DA2F5A1
:100860006072C1F31301002A02DC30BC0020704723
:10087000440F44EAC104C100E01830BC00EBC25090
:1008800000F078B830B50B46014600202022012444
:1008900009E021FA02F59D4205D303FA02F5491B4E
:1008A00004FA02F52844151EA2F10102F1DC30BD64
:1008B0002DE9F05F0546002092469B468846064695
:1008C000814640241BE0284641464746224600F028
:1008D0002FF853465A46C01A914110D31146184674
:1008E000224600F016F82D1A67EB01084F46224603
:1008F0000120002100F00DF817EB00094E41201EE9
:10090000A4F10104DFDC484631462A464346BDE8EF
:10091000F09F202A04DB203A00FA02F10020704701
:100920009140C2F1200320FA03F31943904070472D
:10093000202A04DB203A21FA02F00021704721FA34
:1009400002F3D040C2F1200291400843194670479B
:10095000202A06DBCB17203A41FA02F043EAE07383
:1009600006E041FA02F3D040C2F120029140084370
:10097000194670470029A8BF7047401C490008BFAE
:1009800020F00100704710B4B0FA80FC00FA0CF0BF
:1009900050EA010404BF10BC704749B1CCF12004F7
:1009A00021FA04F411FA0CF118BF01212143084384
:1009B000A3EB0C01CB1D4FEA00614FEA102042BFB0
:1009C000002010BC704700EBC35010440029A4BFA6
:1009D00010BC7047401C490008BF20F0010010BC4B
:1009E000704710B5141E73F1000408DA401C41F181
:1009F000000192185B411A4301D120F0010010BDA3
:100A00002DE9F04D92469B4611B1B1FA81F202E018
:100A1000B0FA80F220329046FFF77BFF04460F4683
:100A200040EA0A0041EA0B0153465A46084313D0F4
:100A3000114653EA010019D0C8F140025046FFF7B1
:100A400077FF05460E46504659464246FFF761FF7E
:100A5000084305D0012004E020463946BDE8F08D6A
:100A60000020054346EAE0762C4337430A986305A5
:100A7000E40AA0EB08000022FD0A44EA47540A30C9
:100A800002D500200146E9E7010510196941DDE9B9
:100A9000084500196941BDE8F04DA2E7064C074D35
:100AA00006E0E06840F0010394E80700984710343E
:100AB000AC42F6D3FFF740FB80700008A07000083E
:100AC0002DE9F04D00231A461B1A8A4103DB002052
:100AD0000146BDE8F08DC1F30A52C1F3130141F4A0
:100AE00080154FF0000BD10702D100186D41521E46
:100AF0000027044640F2FF11384601EB620A3E46E9
:100B00008046024600204FF48011FFF711FFC21902
:100B10007141BB1846EB0100B4EB030C75EB000C04
:100B200004D3E41A65EB000517460E46241908F1B4
:100B300001006D4180463428E3DDF91946EB0600DB
:100B4000091BA84103D24FF0FF32134601E00022F7
:100B500013461BEB070046EB0A51BDE8F04DFFF7CB
:100B600040BF0EB540F2334102910021CDE90011A2
:100B70000A460B46FFF744FF03B000BD0029816819
:100B800002D041F0010101E021F0010181607047D4
:100B9000014600208968490700D501207047C06CD4
:100BA00080B270470246002012680A4200D001203D
:100BB0007047014600208968090700D50120704769
:100BC00010B542680E4B0C791A400B6842EA0422B9
:100BD0001343436082680B4B1A40D1E9024323431D
:100BE0004C7942EA440213438360C26A097C22F4CE
:100BF0007002491EC9B242EA0151C16210BD000033
:100C0000FFFEF0FFFDF7F1FF70B5072609290AD9AD
:100C1000C568A1F10A0404EB4404A640B543A3400F
:100C20001D43C56007E0056901EB4104A640B543DB
:100C3000A3401D4305611F23072A09D2446B521E9E
:100C400002EB820293409C4391400C43446370BD8D
:100C50000D2A09D2046BD21F02EB820293409C43FF
:100C600091400C43046370BDC46A0D3A02EB8202EA
:100C700093409C4391400C43C46270BD816841F035
:100C80000801816070470029816802D041F4A00109
:100C900001E021F4A00181607047816841F0040106
:100CA0008160704738B50121102001F08DFC4FF4B0
:100CB0008074ADF8004010208DF803000320064D2D
:100CC0008DF802006946284601F025FA214628469B
:100CD00001F0A3FA38BD0000001001406FF00400DD
:100CE00001F02ABD70B54FF4FA76B0FBF6F1CCB244
:100CF000B0FBF6F106FB110504E0304601F0F4F913
:100D0000641EE4B2002CF8D1002D04D02846BDE8C2
:100D1000704001F0E9B970BD4FF0E02100EBC00078
:100D2000486100238B61086940F00100086108698F
:100D3000C20701D0C003FAD5086920F0010008619C
:100D40008B617047014801F0AEBE00000004004016
:100D5000014908807047000024040040014801F068
:100D6000A2BE000000080040014908807047000052
:100D7000240800402DE9F047054688B001210920EC
:100D800001F022FC3020ADF818000426DFF8F4A0B2
:100D90008DF81B6003278DF81A7006A9504601F0E4
:100DA000BAF90121022001F0F7FB0121364801F0D8
:100DB00001FADFF8D890484601F0A4FD684602F039
:100DC000B1F80024ADF80040ADF80450ADF806408D
:100DD000ADF802406946484602F056F800231A462C
:100DE0000321484601F046FE03A801F001FF4FF041
:100DF0000608ADF8148003A9484601F063FE2348B5
:100E0000243004800121484601F066FDC020ADF881
:100E100018008DF81B608DF81A7006A9504601F075
:100E20007AF90121042001F0B7FB194E304601F098
:100E300069FD684602F076F8ADF80040ADF8045060
:100E4000ADF80640ADF802406946304602F01CF8A5
:100E500000231A460321304601F00CFE03A801F0DE
:100E6000C7FEADF8148003A9304601F02BFE0848F8
:100E7000243004800121304601F02EFD08B0BDE889
:100E8000F0870000000C014000081A000004004038
:100E90000008004041060748826942F00102826171
:100EA0000548426822F0E062426042680A434260BC
:100EB0007047000000100240000001402DE9FC5F77
:100EC0000D460188934E4942DFF84CA2318040889C
:100ED000DFF84892404200247080A34606F10408DF
:100EE00006F1140736F91400FFF70FFC00224B46F9
:100EF000FFF77CFC0CD258F82400FFF706FC002218
:100F00005346FFF78BFC03D257F82400401C14E033
:100F100036F91400FFF7F9FB00225346FFF77EFC79
:100F20000ED258F82400FFF7F0FB00224B46FFF7E3
:100F30005DFC05D257F82400401E47F8240001E06C
:100F400047F824B0641C022CCCDB724800240C3817
:100F5000DFF8CCA14068FFF735FCCDE9001006466C
:100F60006C48009F00F1140100F1040951F82410AD
:100F700030F91480C1EB014159F824004144081AAA
:100F8000FFF7C3FB32463B46FFF72BFB0AEBC402DD
:100F9000634FC2E9000149F82480DFF888911037D7
:100FA000614EDFF88881641C022C01DA0198D6E7D3
:100FB000DAE90223DAE90001FFF7FAF94FF0FF322C
:100FC000FFF77EFBC7E9000152480C38B0F900007A
:100FD000FFF79BFB564A574BFFF791FAFFF7D3FBFE
:100FE0004FF0804100B2898E0844FFF78EFB00224B
:100FF000514BFFF77EFA0022504BFFF7F2FA504CAC
:10100000DFF840A122465346FFF779FA22465346BD
:10101000FFF772FA05F07CF8D7E90023FFF76FFAC3
:10102000494A4A4BFFF7DDFAC7E90201B5F9040066
:10103000FFF76BFB00223346FFF7D3FA03F098F972
:10104000D7E90023FFF75BFA00223346FFF757FA90
:10105000FFF799FB298808442880B5F90400FFF7B9
:1010600054FB00223346FFF7BCFA04F0DBFFD7E95C
:101070000023FFF744FA00223346FFF740FAFFF758
:1010800082FB6988002208446880D7E90201334660
:10109000FFF735FAFFF777FBA988084400B2A8806C
:1010A000FFF733FB44464246294BFFF7B7FBB5F940
:1010B000040006D2FFF729FB22464B46FFF719FA38
:1010C0000EE0FFF722FB2246224BFFF78FFB0AD2EE
:1010D000B5F90400FFF719FB22464B46FFF768F904
:1010E000FFF751FBA880D7E9000100223346FFF744
:1010F00006FAFFF748FBE880A5F808B0D7E9020137
:1011000000223346FFF7FBF9FFF73DFB6881BDE89E
:10111000FC9F00003C0000204099C940C099C9C014
:10112000500100202F8BB84000408F403867446941
:101130002DB29DEFA7C6F13F0070974000409F4041
:101140004AD8124DFB21094017D9CEF753E3D53FBA
:101150002F8BA8402F8BA8C02DE9F0410546B0F990
:101160000000FFF7C4FA1149FFF7D8F8FFF72AFB90
:101170000F4C06460F46C4E9060168880D494042F7
:10118000208000200880488088800B4A0B4B304626
:101190003946FFF7B4F902460B4600200849FFF72D
:1011A00020FAFFF753FB6060BDE8F08100007A444D
:1011B0003000002000010020D91E57A7C0C4D03F36
:1011C00000308B402DE9F84F05460E46B0F900007F
:1011D000FFF78DFA5249FFF7A1F80446B5F904006C
:1011E000FFF785FA4F49FFF799F8DFF83C81414650
:1011F000FFF762F8FFF7E6FA4C4FDFF834913A4612
:101200004B46FFF7EEF9FFF721FB4A4D4A49A8602C
:10121000884202DC4949884200D9A9604FF08040E9
:10122000844202DC4042844200D90446C246414620
:10123000A868FFF773F8FFF7C5FABB463A464B4676
:10124000FFF75DF904F064FF3D4A3E4BFFF757F9A5
:101250004FF0FF32FFF734FA3B4A3C4BFFF7C1F93E
:1012600000223B4BFFF7A4F8074688462046FFF7CD
:10127000A9FA04463A4643460091FFF740F9FFF7C2
:10128000E5FA2C4F514628373860A868FFF746F832
:10129000FFF798FA5A464B46FFF731F904F038FF4A
:1012A000274A284BFFF72BF94FF0FF32FFF708FAD8
:1012B000254A264BFFF795F90022254BFFF71CF92D
:1012C00002460B4620460099FFF719F9FFF7BEFAD0
:1012D0007860044638686968FEF7EEFF1D4F3946AE
:1012E000FFF71CF8FFF722FA308020466968FEF706
:1012F000E3FF3946FFF712F8FFF718FA7080B5F9E7
:101300000000FFF7F4F904461349A868FEF7D4FF7C
:101310002146FEF7CBFFFFF709FAB080BDE8F88F52
:1013200000007A4400007AC4000034436F1283C086
:10133000CA2109403000002000000C4200000CC20D
:101340001F85EB51B81EC53F17D9CEF753E3D53FE4
:101350000000F03F0000484200002041F8B50121A4
:10136000242001F031F90420ADF8000010208DF8A0
:10137000030003200B4D8DF802006946284600F05B
:10138000CAFE094EAC15ADF800406946304600F083
:10139000C2FE0421284600F042FF2146304600F0FC
:1013A0003EFFF8BD001401400008014070B5154D26
:1013B000041E09DD0821284600F02FFF04212846DD
:1013C00000F02DFFA1B20BE04FF00401284611DA26
:1013D00000F023FF0821284600F021FF604281B27F
:1013E0004FF4FA60814200D90146BDE870400648DA
:1013F00001F020BD00F011FF0821284600F00DFF8C
:101400000021F2E700100140000C004070B5154DBE
:10141000041E09DD0221284600F0FFFE01212846B6
:1014200000F0FDFEA1B20BE04FF00101284611DAF9
:1014300000F0F3FE0221284600F0F1FE604281B286
:101440004FF4FA60814200D90146BDE87040064879
:1014500001F0EEBC00F0E1FE0221284600F0DDFEC6
:101460000021F2E700100140000C004070B5044676
:1014700088B00121052001F0A7F80325ADF8105030
:1014800018208DF813008DF8125004A9384800F088
:1014900042FE0121102001F097F80C20ADF8100059
:1014A00010208DF81300334E8DF8125004A93046E9
:1014B00000F031FEADF8105004A9304600F02BFECC
:1014C000002C52D0142C00D914240121082001F042
:1014D00063F840F2CF70ADF818002420B0FBF4F0B0
:1014E000401EADF814000024234DADF81A40ADF8AD
:1014F000164005A9284601F0C7FC6020ADF80000A1
:101500000120ADF80200ADF80640ADF8084069468C
:10151000284601F07DFB0821284601F0B9FB694609
:10152000284601F0BBFB0821284601F0F7FB69467D
:10153000284601F0FDFB0821284601F037FC6946EA
:10154000284601F039FC0821284601F067FC0121FA
:10155000284601F0B1F90121284601F0BDF9012129
:10156000284601F0C3F908B070BD0124ADE70000C2
:101570000008014000100140000C00402DE9F04F30
:1015800089B0054608A8734CCDE9004007AB02AA14
:10159000A91D284603F08AF82088C0057ED5029848
:1015A000FFF7A5F86FF01D073946FEF7F5FE8046F8
:1015B00060600398FFF79BF83946FEF7EDFE814621
:1015C000A0600498FFF793F83946FEF7E5FE06465B
:1015D000E0600598FFF78BF83946FEF7DDFE074619
:1015E000206101214046FEF7D7FE3146FEF764FE3A
:1015F00006464FF0404841464846FEF75DFE3946F4
:10160000FEF75AFE3146FEF7FFFDFFF7DBF802F06A
:10161000A7FBDFF844A14FF066394A465346FEF770
:101620006EFFFFF713F96061E06801210646FEF7DF
:10163000B3FE83463146FEF73FFE0646A0684146AC
:101640008046FEF739FE4146FEF736FE3146FEF78C
:101650002DFE4FF07E51FEF7D7FDFFF7B3F806469B
:101660000F4601216068FEF797FE4146FEF724FE13
:10167000804658462169FEF71FFE4146FEF7C4FD2D
:10168000FFF7A0F832463B4602F0B2FD4A46534609
:10169000FEF735FFFFF7DAF8A06100E056E02169B8
:1016A00006910846FEF708FEE1688046084600916C
:1016B000FEF702FEA168074608460191FEF7FCFD11
:1016C000616806468B465846FEF7F6FD3146FEF742
:1016D0009BFD3946FEF7EAFD4146FEF7E7FDFFF7C1
:1016E00071F806460F4658460699FEF7E5FD804616
:1016F000DDE90010FEF7E0FD4146FEF785FD012122
:10170000FEF74AFEFFF75EF832463B4602F070FDF8
:101710004A465346FEF7F3FEFFF798F80F4F06468A
:10172000E0613946A069FEF7C7FDFEF7FFFFA8811B
:1017300039466069FEF7C0FDFEF7F8FFE8813946DB
:101740003046FEF7B9FDFEF7F1FF288209B0BDE88B
:10175000F08F00008C00002066A64C400000C842BC
:1017600070B503F0B5FE00285AD1782004F06CFB68
:1017700010F0FF0F02D02BA001F070FD782003F0D5
:10178000D7FD10F0FF0F02D02CA001F067FD642000
:1017900004F01EFB10F0FF0F02D02FA001F05EFD41
:1017A00002F07AFF10F0FF0F02D032A001F056FDD8
:1017B0003A48044603F022FD0546E01C03F01EFDF6
:1017C00045EAC005A01D03F019FD45EA801080B26E
:1017D00003F014F910F0FF0F02D031A001F03EFD2C
:1017E00040F2731002F030FE10F0FF0F02D033A071
:1017F00001F034FD642003F069F810F0FF0F02D00F
:1018000035A001F02BFD04F0A6FB012004F006FA40
:1018100010F0FF0F04D0BDE8704036A001F01EBDEF
:1018200070BD00006D70755F7365745F73656E7376
:101830006F72206572726F720D0A00006D70755FB5
:10184000636F6E6669677572655F6669666F20654E
:1018500072726F720D0A00006D70755F7365745F50
:1018600073616D706C655F72617465206572726F13
:10187000720D0A00646D705F6C6F61645F6D6F74F0
:10188000696F6E5F6472697665725F6669726D77A3
:10189000617265206572726F720D0A00AC000020E3
:1018A000646D705F7365745F6F7269656E74617487
:1018B000696F6E206572726F720D0A00646D705FE1
:1018C000656E61626C655F666561747572652065E1
:1018D00072726F720D0A0000646D705F7365745FE1
:1018E0006669666F5F72617465206572726F722ED1
:1018F0000D0A00006D70755F7365745F646D705FD5
:101900007374617465206572726F722E0D0A000027
:1019100008B50121082000F057FE4FF44070ADF8E3
:10192000000010208DF8030003208DF802006946A6
:10193000124800F0F0FB12480121C0F8A011C0F8D5
:10194000A41100216B2000F0D4FD18211B2000F011
:10195000D0FD00211C2000F0CCFD8021372000F0BC
:10196000C8FD01216B2000F0C4FD00216C2000F0B7
:10197000C0FDBDE808406420FFF7B4B9000C014089
:10198000008021422DE9F041254D441A4FF47A712F
:10199000686920446861884202DC4942884200DA72
:1019A0006961B5F9020069694843FEF7A0FEDFF8F6
:1019B00074804146FEF780FC07462869B5F904109B
:1019C000201A4843FEF793FE4146FEF775FC064693
:1019D000B5F900006043FEF78AFE4146FEF76CFC55
:1019E0003146FEF711FC3946FEF70EFC0646B5F906
:1019F0000600FEF77CFE3146FEF706FCFEF796FE7B
:101A000000B2E8804FF4FA612C61884202DC49425E
:101A1000884200DAE980B5F90600BDE8F0810000EF
:101A2000600000200AD7233C2DE9F041254D441ADF
:101A30004FF47A71286A20442862884202DC4942C5
:101A4000884200DA2962B5F90200296A4843FEF7A4
:101A50004EFEDFF874804146FEF72EFC0746E8692B
:101A6000B5F90410201A4843FEF741FE4146FEF73F
:101A700023FC0646B5F900006043FEF738FE4146F8
:101A8000FEF71AFC3146FEF7BFFB3946FEF7BCFBFA
:101A90000646B5F90800FEF72AFE3146FEF7B4FB0C
:101AA000FEF744FE00B228814FF4FA61EC618842EF
:101AB00002DC4942884200DA2981B5F90800BDE814
:101AC000F0810000600000200AD7233C70B500F0D0
:101AD000A7FA234C40F21A41224D8842A0804FF0D1
:101AE0000401284637D200F091FBC0F10100C2B2D8
:101AF0000421284600F095FBA08840F2DE318842A0
:101B000026D26088401C80B26080C82822D9042177
:101B1000284600F082FBAC152146134800F07FFBFD
:101B20000020FFF743FC0020FFF770FC0F4D4FF43F
:101B30007A762146284600F072FB1E20FFF7D2F885
:101B40002146284600F069FB3046FFF7CBF8F0E766
:101B50000020608070BDBDE8704000F060BB0000F8
:101B60000000002000140140000801400010014066
:101B700070B5FFF7E7F8244CA0F5EA403038208034
:101B8000FFF7ECF847F23055281A60802846FFF737
:101B9000DFF82846FFF7E8F8A4F10800228801885A
:101BA000891A018041886288891A41801749FFF7A4
:101BB00085F9A4F11001881FFFF704FBA4F11006BA
:101BC000B4F90010B6F90000FFF7DCFEA4F11A0525
:101BD0002880B4F90210B6F90200FFF725FF6880EB
:101BE0002888404200B2FFF7E1FB6888404200B21B
:101BF000FFF70CFCB088A91F00F561700880BDE8F4
:101C0000704080B200F0D0B8200000200001002019
:101C10003249A1F12A000A88130A037042704A88E7
:101C2000130A8370C2708A88130A03714271CA88CA
:101C3000130A8371C2710A89130A037242724A89B4
:101C4000130A8372C2728A89130A03734273CA89A0
:101C5000130A8373C273098A0A0A02744174A0F1D9
:101C60000C010A88130A8374C2744A88130A037524
:101C700042758A88130A8375C275CA88130A037667
:101C800042760A89130A8376C27649890A0A02775C
:101C9000134A417711880B0A8377C17751880A0A62
:101CA00080F820200E4A80F82110103A11880B0A83
:101CB00080F8223080F8231051880A0A80F8242006
:101CC00080F825100649203989880A0A80F82620DC
:101CD00080F827100622282100F068B9360100207C
:101CE0002000002030B589B001210D2000F06CFCEF
:101CF00001212A4800F05EFA0820ADF810001820F3
:101D00008DF8130003208DF8120004A9244800F078
:101D100002FA4FF40040ADF8100004A9214800F089
:101D2000FAF90121084600F037FC4720ADF814000D
:101D300044F61F600024ADF818004FF08045ADF860
:101D40001640ADF81A4005A9284601F09DF860211B
:101D5000ADF800100120ADF8020040F2DC50ADF803
:101D60000600ADF808406946284600F051FF0821FA
:101D7000284600F08DFF6946284600F08FFF0821B5
:101D8000284600F0CBFF0121284600F095FD0121F7
:101D9000284600F0A1FD09B030BD00000003180086
:101DA000000C01400008014010B54FF4E161884289
:101DB00000D90846FEF7A4FC0749FEF77DFA07495B
:101DC000FEF722FAFEF7CBFC81B2BDE810404FF0DF
:101DD000804001F02DB800003F358E3F0000FA43EF
:101DE0000448017819B100210170012070470020DA
:101DF00070470000840000201FB504460121102018
:101E000000F0CAFB4720641EADF80000ADF80440A6
:101E10000020124CADF80200ADF8060069462046DD
:101E200001F032F80121204600F050FD0122114658
:101E3000204600F0E5FE0121204600F04DFD362051
:101E40008DF80C0002208DF80D0001208DF80E0099
:101E50008DF80F0003A800F057FB1FBD00100040D5
:101E600030B5044687B00121042000F0ADFB01210C
:101E7000880300F0A9FB4FF40071ADF81010182191
:101E80008DF8131003201E4D8DF8120004A928466A
:101E900000F041F92815ADF8100004218DF8131059
:101EA00004A9284600F037F90020ADF8040000949A
:101EB000ADF80600ADF80800ADF80C000C20114C90
:101EC000ADF80A006946204601F068F925218DF831
:101ED000141002208DF8150001218DF816108DF8D0
:101EE000171005A800F010FB012240F225512046F2
:101EF00001F03CF90121204601F008F907B030BD9E
:101F0000000801400038014070B5044686B0012148
:101F1000082000F059FB0425ADF8105018208DF86A
:101F2000130003201F4E8DF8120004A9304600F064
:101F3000F2F80820ADF810008DF8135004A93046CF
:101F400000F0E9F80121480400F026FB0020ADF87C
:101F500004000094ADF80600ADF80800ADF80C00E0
:101F60000C20114CADF80A006946204601F016F924
:101F700026218DF8141002208DF8150001218DF80E
:101F800016108DF8171005A800F0BEFA012240F2D5
:101F90002551204601F0EAF80121204601F0B6F86B
:101FA00006B070BD00080140004400402DE9F0413A
:101FB000002332292ED8184DAA242C7055246C7079
:101FC0004C1DAC70EA70002204E0865CAF18521C15
:101FD0003E71D2B28A42F8D3091DC9B2002004E092
:101FE0002A5C401C1A44D3B2C0B28842F8D3E6B28D
:101FF0002B540024094F0BE0295D384601F028F9E5
:102000004021384601F08CF80128F9D1641CE4B273
:10201000B442F1D3BDE8F081040200200044004046
:1020200010B50B4C01212046FEF72DFE0221204663
:10203000FEF7B8FD0028F9D02046FEF7B0FD40F6C7
:102040002E61484340F6FF71B0FBF1F080B210BD45
:102050000028014030B587B00121082000F0B4FA13
:102060000125ADF8145000248DF8174005A91B4830
:1020700000F051F80121880200F0A6FA4FF4602028
:10208000CDE902048DF8044000948DF80540144C0D
:102090008DF8105069462046FEF792FDE80300F0E7
:1020A00071FA0723012208212046FEF7ADFD012128
:1020B0002046FEF763FD2046FEF7E0FD2046FEF7D2
:1020C00078FD0028FAD12046FEF7E7FD2046FEF70E
:1020D0005FFD0028FAD107B030BD0000000C0140C0
:1020E00000280140FEE7704742F2283148434FF094
:1020F000E021486100238B61086940F0010008611C
:102100000869C20701D0C003FAD5086920F00100B0
:1021100008618B617047F0B5CC78002204F00F03A2
:10212000E40601D58C7823430C784FF00F0C14F0A3
:10213000FF0F4FF0010E1BD005680E880EFA02F457
:102140002640A64210D196000CFA06F725EA0707AA
:1021500003FA06F5CE783D43282E02D0482E02D051
:1021600002E0446100E00461521C082AE5D30560E6
:102170000A88FF2A1CD94468002202F108060EFAD8
:1021800006F50E882E40AE420ED196000CFA06F7E8
:10219000BC4303FA06F7CE783C43282E00D14561B4
:1021A000CE78482E00D10561521C082AE5D3446040
:1021B000F0BD0000F0B5144C002801DAE36900E03E
:1021C0006368450D2E0185B2C0F30157B540C0F3D9
:1021D0000342032F05D0C6020AD503269640B34317
:1021E00007E023F07062636823F07063636002E0CD
:1021F000AB4343F0706201B12A43002801DAE26187
:10220000F0BD6260F0BD0000000001400246002009
:1022100092680A4200D00120704741617047016115
:1022200070470AB10161704741617047FEE70000E5
:102230002DE9F047DFF8A89082460024D9F8001075
:1022400021F0F001C9F80010D9F8001041F0800128
:10225000C9F80010234E254627464FF00108C6F85E
:10226000A0710220FEF758FDC6F8A0816006040E9A
:10227000D6F8240108B1641CE4B20220FEF74CFD3C
:102280006D1CEDB2082DEAD3BAF1000FC6F8A071AB
:10229000D9F80010484621F0F001C9F80010D9F82B
:1022A000001041F03001C9F8001009D0C6F8A4713F
:1022B000012006F5D076FEF72FFDC6F8008008E075
:1022C0004546C6F8A481012006F5D076FEF724FD28
:1022D00035600120FEF720FD37602046BDE8F0871D
:1022E000040C0140008021422DE9F04105461448CC
:1022F000016821F0F0010160016841F030010160E6
:10230000104E0027C6F8A0713C464FF00108E809BE
:10231000C6F8A4016806050E0120FEF7FDFCC6F80C
:10232000A0810120FEF7F8FCC6F8A0710120FEF79D
:10233000F3FC641CE4B2082CE9D3BDE8F081000092
:10234000040C01400080214270B51148016821F061
:10235000F0010160016841F0300101600D4C012085
:10236000C4F8A401D4F8241149B1C4F8A001FEF7BF
:10237000D3FC0025C4F8A451D4F8240108B10020EE
:1023800070BD0120FEF7C8FCC4F8A051012070BD4B
:10239000040C0140008021420D4810B5016821F075
:1023A000F0010160016841F030010160094C00203A
:1023B000C4F8A001C4F8A401012004F5D074FEF70C
:1023C000ABFC012020606060BDE81040FEF7A4BCBB
:1023D000040C01400080214270B5134800240168BC
:1023E00021F0F0010160016841F0800101600F4DB2
:1023F0000126C5F8A4613046FEF78EFCC5F8A06141
:1024000007E0641CE4B2322C03D9FFF7C5FF0020BB
:1024100070BD0120FEF780FCD5F824010028F0D122
:10242000C5F8A001012070BD040C014000802142CC
:102430002DE9F0411D4614460F460646FFF784FF7E
:10244000B0B17006000EFFF74FFFFFF7C5FF90B168
:102450003846FFF749FFFFF7BFFFFFF775FF012081
:1024600000EB4600C0B2FFF73FFFFFF7B5FF0EE0FD
:102470000120BDE8F081FFF78FFFF9E7012C0CD0B8
:102480000120FFF7D5FE641E05F8010BE4B2002C15
:10249000F4D1FFF781FF0020EBE70020F1E72DE901
:1024A000F0411D4616460C460746FFF74DFF68B142
:1024B0007806000EFFF718FFFFF78EFF48B12046A1
:1024C000FFF712FFFFF788FF00240CE00120BDE8B2
:1024D000F081FFF761FFF9E7285DFFF705FFFFF7E0
:1024E0007BFF10B1641CB442F6DBFFF755FF002000
:1024F000EDE713B5014601AB01226820FFF7CFFFDE
:102500001CBDFEE77047000030B50F23C27801788C
:102510000125F2B1144A126801F1E02102F4E062EF
:10252000C2F5E062120AC2F10404D3404278A2402C
:1025300084781C401443220181F80024007800F0C4
:102540001F018D404009800000F1E020C0F80051DB
:1025500030BD01F01F0085404809800000F1E020F7
:10256000C0F8805130BD00000CED00E00249084386
:1025700002490860704700000000FA050CED00E019
:1025800070470000034A516821F440410143516003
:102590007047000000100240044A0029D16901D0B0
:1025A000014300E08143D161704700000010024008
:1025B000044A0029116901D0014300E081431161FF
:1025C0007047000000100240044A0029916901D0C0
:1025D000014300E081439161704700000010024018
:1025E000044A0029D16801D0014300E08143D16051
:1025F000704700000010024030B5204A5168204B5F
:1026000011F00C0103D0042901D0082901D0036086
:1026100012E05168536801F470114FF0020413F492
:10262000803F04EB914102D053689B0301D5154BC9
:1026300000E0134B5943016051680F2303EA111165
:10264000114B5C5C0168E14041605468072505EA74
:1026500014241C5D21FA04F48460546805EAD4242F
:102660001B5DD940C1605268032303EA9232064BD6
:102670001B1F9A5CB1FBF2F1016130BD00100240FA
:1026800000127A0000093D00E800002070470000B9
:102690000CB50022264800920192016841F4803175
:1026A00001604FF4A063016801F4003101910099C9
:1026B000491C0091019911B900999942F3D101681F
:1026C000890333D5012101911A490A6842F01002A9
:1026D0000A600A6822F003020A600A6842F00202F5
:1026E0000A604168416041684160416841F480612D
:1026F0004160416821F47C114160416841F4E81176
:102700004160016841F08071016001688901FCD578
:10271000416821F003014160416841F002014160DC
:102720004168C1F381010229FAD10CBD01920CBDAF
:1027300000100240002002404FF0E0210428086908
:1027400003D020F004000861704740F00400FAE76D
:10275000704700000F4810B5016841F001010160A9
:1027600041680D4A1140416001680C4A1140016006
:10277000016821F480210160416821F4FE0141607B
:102780004FF41F018160FFF783FF05494FF00060A0
:10279000086010BD001002400000FFF8FFFFF6FEC9
:1027A00008ED00E070B5048C24F001040484058B6E
:1027B000048C4FF6FF7606EA0313134325F0F30566
:1027C0000E4A2B4390420ED00D4A90420BD0B0F1EE
:1027D000804F08D00B4A904205D00B4A904202D05D
:1027E0000A4A904202D124F0020201E024F00A02D7
:1027F0000A4342F001010383018470BD002C0140B3
:10280000003401400004004000080040000C00407B
:10281000F0B5048C24F010040484078B048C4FF66C
:10282000FF7527F4734705EA03333B4305EA0222A9
:102830001A43114B05EA011698420ED00F4B9842ED
:102840000BD0B0F1804F08D00D4B984205D00D4B06
:10285000984202D00C4B984205D124F0200131431C
:1028600041F0100104E024F0A0030B4343F01001F9
:1028700002830184F0BD0000002C014000340140BF
:102880000004004000080040000C004010B5084C57
:102890000121204600F009F9002808D0054901204F
:1028A000087001462046BDE8104000F012B810BD87
:1028B00000100040840000200029018802D041F06F
:1028C000800101E021F0800101807047C94301824D
:1028D0007047C943018270470029018802D041F046
:1028E000010101E021F0010101807047002930F869
:1028F000441F02D041F4004101E0C1F30E01018008
:10290000704700004B4910B5884202D10121C41420
:1029100086E0B0F1804F09D0474988420DD10121AE
:102920000220FFF745FE0021022064E00121084655
:10293000FFF73EFE002101205DE04049884206D1BC
:1029400001210420FFF734FE0021042053E03C491C
:10295000884206D101210820FFF72AFE0021082025
:1029600049E03849884206D101211020FFF720FEB6
:10297000002110203FE03449884206D10121202067
:10298000FFF716FE0021202035E03049884202D1B1
:102990000121441444E02E49884202D10121CC0493
:1029A0003EE02C49884202D101210C0538E02A4939
:1029B000884202D101214C0532E02849884206D1E3
:1029C00001214020FFF7F4FD0021402013E02449BD
:1029D000884206D101218020FFF7EAFD00218020F6
:1029E00009E0204988420AD1841501212046FFF7D9
:1029F000DFFD00212046BDE81040FFF7D9BD1A4990
:102A0000884202D101210C040AE01849884202D10F
:102A100001214C0404E0164988420AD101218C04AA
:102A20002046FFF7DDFD2046BDE810400021FFF7FE
:102A3000D7BD10BD002C014000040040000800403C
:102A4000000C004000100040001400400034014021
:102A5000004C01400050014000540140001800406B
:102A6000001C0040002000400040014000440140A4
:102A70000048014070B50589048B068C25F00705D8
:102A80000D434FF6FC410C4040F201110C434FF650
:102A9000FF7101EA031126F022061143314305813B
:102AA0000483018470BD808C704702460020138A25
:102AB00092890B4202EA010202D0002A00D00120D2
:102AC000704700002DE9F84F0D4604460888434F33
:102AD000DFF80CC1DFF80C81DFF80C914988AA8877
:102AE0002B894FF0804A48B3042830D04FF6FF7648
:102AF0000828934634D0208C9E4620F480502084B1
:102B0000A38B208C06EA0132009223F4734306EA79
:102B10000B221A4306EA0E331343BC420AD0644523
:102B200008D0544506D0444504D04C4502D02F4A25
:102B3000944245D120F40050009943E02046FFF72D
:102B400031FEE9882046BDE8F84F00F075B920460F
:102B5000FFF75EFEE9882046BDE8F84F00F074B943
:102B6000208C20F480702084B4F81CE0208C06EACD
:102B7000031306EA01222EF0F30E43EA0B0343EAA5
:102B80000E030092BC420AD0644508D0544506D0DA
:102B9000444504D04C4502D0144A944203D120F459
:102BA0000070009901E020F42060084340F4807038
:102BB000A3832084E9882046BDE8F84F00F050B98F
:102BC00020F40240084340F48050A3832084E98825
:102BD0002046BDE8F84F00F04BB90000002C014042
:102BE000003401400004004000080040000C004098
:102BF00000210180418001228280C18001817047D3
:102C0000002A828901D00A4300E08A43828170470A
:102C100030B5028C22F001020284028C8388048B7E
:102C200022F0020224F073050C882C430D89154311
:102C30004A882A43114DA8420BD0114DA84208D012
:102C4000104DA84205D0104DA84202D00F4DA84209
:102C50000DD122F008054A8923F440732A4322F05B
:102C600004058A882A438D891D43CB892B438380A1
:102C70000483C9888186028430BD0000002C014095
:102C80000034014000400140004401400048014040
:102C9000028B22F008020A430283704770B5028C4F
:102CA00022F010020284028C8388048B0D8824F4A5
:102CB000E6464FF6FF7404EA052535430E8922F0F7
:102CC000200204EA061616434A8804EA0212324336
:102CD000104EB04202D0104EB04215D122F0800604
:102CE0004A8923F4406304EA0212324322F0400688
:102CF0008A8804EA021232438E8904EA86061E4359
:102D0000CB8904EA8303334383800583C988018721
:102D1000028470BD002C014000340140028B4FF64C
:102D2000FF7322F4006203EA01211143018370471B
:102D300070B5028C22F480720284028C8388848BAA
:102D40000D8824F0730425430E894FF6FF7422F496
:102D5000007204EA062616434A8804EA0222324335
:102D6000104EB04202D0104EB04215D122F400668F
:102D70004A8923F4405304EA0222324322F4806653
:102D80008A8804EA022232438E8904EA06161E4328
:102D9000CB8904EA0313334383808583C988818701
:102DA000028470BD002C014000340140828B22F06F
:102DB00008020A438283704770B5028C22F4805265
:102DC0000284058C8288838B0C8823F4E6464FF6B8
:102DD000FF7303EA0424344325F400560D8903EA03
:102DE000053535434E8803EA06362E43094DA84281
:102DF00002D0094DA84205D122F480458A8903EA10
:102E000082122A4382808483C988A0F840100684F5
:102E100070BD0000002C014000340140828B4FF651
:102E2000FF7322F4006203EA01211143818370479A
:102E30008186704701877047028B22F00C02028363
:102E4000028B0A4302837047028B22F440620283A2
:102E5000028B4FF6FF7303EA01210A430283704796
:102E6000828B22F00C028283828B0A43828370471A
:102E7000828B22F440628283828B4FF6FF7303EAD7
:102E800001210A438283704730B502881B4C1C4DD8
:102E9000A0420DD0A8420BD0B0F1804F08D0194B02
:102EA000984205D0184B984202D0184B984203D153
:102EB00022F070034A881A43154B984206D0154BEE
:102EC000984203D022F44073CA881A4302808A8849
:102ED00082850A880285A0420AD0A84208D00E4AFC
:102EE000904205D00D4A904202D00D4A904201D145
:102EF000097A01860121818230BD0000002C014049
:102F0000003401400004004000080040000C004074
:102F10000010004000140040004001400044014007
:102F2000004801404FF6FF71818000210180C1807F
:102F300041800172704700002DE9F041224C40F2BF
:102F400025552946204600F0F2F8002839D02046C1
:102F500000F07AF91D49C2B200264B7801271C48BF
:102F6000032B15D23BB1012B0AD08270032048708D
:102F7000521E8A701EE0AA2A1CD102704F7019E0FE
:102F8000552A03D142700220487013E04E7011E0C0
:102F900090F802C0ACF1010C9C4506DDC2545B1CEC
:102FA0004B7088781044887004E08878824201D1A0
:102FB0000F70EBE729462046BDE8F041012200F002
:102FC000D5B8BDE8F0810000003801408500002040
:102FD000780100202DE9F041434E40F22557394653
:102FE000304600F0A4F800287BD0304600F02CF9E1
:102FF0003E4C00253E4A2178C0B2032912D231B19D
:10300000012909D0907003212170401E13E0AA28E5
:1030100060D11070012003E055285AD15070022071
:10302000207057E093785B1E8B4206DD5054491C9C
:1030300021706178084460704CE06178884249D121
:10304000D078112804D012282DD0132838D040E091
:103050009088284B40BA00B21880D18849BA0FFA3C
:1030600081FCA3F802C0118941F2883249BA09B241
:103070009980904200DD1A80B3F900E01E48864531
:1030800000DA1880944500DD5A80B3F902C0844507
:1030900000DA5880914200DD9A80B3F90410814231
:1030A00017DA988015E09088144940BA0880D088D3
:1030B000134940BA08801089124940BA088008E0D4
:1030C000908841BA10480180D18849BA4180FEF702
:1030D00043F8257039463046BDE8F041012200F042
:1030E00045B8BDE8F08100000044004088000020A1
:1030F000C80100200A00002078ECFFFF60000020DB
:10310000620000206400002028000020002981893E
:1031100002D041F4005101E021F400518181704757
:103120000246002012880A4200D00120704770B584
:1031300001F01F0501260024C1F3421306FA05F22F
:10314000012B0FD0022B0FD0838A4FEA1121008868
:10315000134206FA01F600EA060001D000B101248C
:10316000204670BD8389F0E7038AEEE710B5C1F30E
:10317000421301F01F040121A140012B07D0022BB3
:1031800007D01430002A026805D00A4304E00C304E
:10319000F8E71030F6E78A43026010BD30B5044608
:1031A000008A85B00D464CF6FF710840E98801435E
:1031B0002182A0894EF6F3110840A9882A8911437B
:1031C0006A8902431143A181A08A4FF6FF4108405A
:1031D000A9890143A1826846FFF70EFA1948844283
:1031E00001D1039800E00298A189090400EBC00115
:1031F00001EB0010296801D5490000E08900B0FB0F
:10320000F1F06422B0FBF2F109010B096FF018052F
:103210006B4300EB8300A3891D044FF0320306D5F6
:1032200003EBC000B0FBF2F000F0070005E003EB99
:103230000010B0FBF2F000F00F000843208105B051
:1032400030BD0000003801408088C0F3080070479E
:10325000C1F3080181807047FEE700000FB4054B01
:1032600010B503A9044A029800F092FC10BC5DF866
:1032700014FB0000454D0008F8000020490050EA0A
:10328000C12018BF04204A0D18BF40F0010040F2D1
:10329000FF72B2EB515F08BF40F00200012808BF87
:1032A000052070472DE9F74F144694B00021C4E97A
:1032B00002111599079121F00045C9498D4206DC9C
:1032C0001599C4E9000117B00020BDE8F08FC54989
:1032D000DFF814A3A9423CDD0799C44E0029C44F6E
:1032E000C44A1599534619DDFDF703F9554506D033
:1032F000C14AC24BFDF7FDF8C4E900010AE04FF0F6
:10330000D352BE4BFDF7F5F832463B46FDF7F1F8D8
:10331000C4E9000117B00120BDE8F08FFDF748F8BF
:10332000554506D0B44AB54BFDF742F8C4E9000153
:103330000AE04FF0D352B14BFDF73AF832463B4624
:10334000FDF736F8C4E9000117B04FF0FF30BDE8D3
:10335000F08FAB49A942159978DB21F000418346F3
:103360008846A84AA84BFDF7CAF80022A74BFDF7EC
:103370001FF8FDF708FA0990FDF7C7F906460F4652
:103380009C4A5346FDF7BBF843465A46FDF7B4F84E
:1033900080468A46984A994B30463946FDF7AFF841
:1033A0002A0D01250B9242465346FDF7A5F8032D41
:1033B000C4E9000139D00B98C1F30A51401A05EB5A
:1033C00045111139814230DA9148C346784400EB07
:1033D0000510CDF80CA00C90D0E9002330463946FA
:1033E000FDF78DF802460B46049106905846039966
:1033F000FDF77FF880468A4602460B4658460399F9
:10340000FDF777F8049B069AFDF773F883460C984E
:1034100003913946D0E902233046FDF770F85A4649
:10342000039BFDF766F86D1CBDE707980028A2BF57
:10343000099817B0BDE8F08F616881F000416160C4
:10344000099817B04042BDE8F08FFFE78446159811
:10345000C1F31301C0F30A50A0F2F5304FEA60182F
:1034600000F01F06C6F12000139000200690079080
:1034700041F4801E05206D4676B1664A08EB0001D6
:103480007A4452F8213002EB8101B3404A68139923
:1034900022FA01F1194305E05F4908EB0002794483
:1034A00051F82210A1FB0E27A1FB0C131A449A42DB
:1034B00034BF0123002303EB070A05EB8003D3E9A4
:1034C00001B70F448F4234BF0121002193448B4444
:1034D00011B1934502D903E0934501D2012100E0E7
:1034E0000021C3E901B7514445F82010011EA0F1A5
:1034F0000100C1DC0298059F00F10050800F12907E
:103500000298DDE903568000FDF7FFF88346284660
:103510000D91FDF726FB6FF01D02FDF7D1F8CDE907
:103520000E013046FDF71DFB6FF03D02FDF7C8F8B8
:1035300080468A463846FDF714FB6FF05D02FDF7C2
:10354000BFF80746424653461191FCF731FFDDE9CB
:103550000E23FCF72DFF5A460D9BFCF729FF002593
:103560000E465A4628460D9BFCF7C3FFDDE90E23A5
:10357000FCF7BFFF42465346FCF7BBFF3A46119BA0
:10358000FCF7BAFFDFF898A0244A5346FCF7B7FFD0
:1035900007468846234A244B31462846FCF7AFFFAE
:1035A0003A464346FCF704FF074688464FF0A842D8
:1035B000534631462846FCF7A2FF3A464346FCF7FD
:1035C000F7FE159A12F0004F04D0129A81F00041D4
:1035D00052421292C4E90001129817B0BDE8F08F70
:1035E000FB21E93F7CD90240FB21F93F7370032E98
:1035F0008A19A33B000040543163621A61B4D03D84
:10360000FB21394183C8C96D305FE43F0000E03FD2
:10361000103B00008C3A00006E3A0000182D445414
:10362000FB21F93D3326A611460B113C2DE9FF4D38
:1036300021F0004807460C46B8F1795F08DAFDF73B
:10364000A2F8002801BF0020324904B0BDE8F08D87
:103650003A46234610461946FCF751FF05460246F6
:103660002D480E460B460621784400F05DF82A46A8
:103670003346FCF744FFDDE9022382468B46384699
:103680002146FCF73CFF04460F4652465B4628465F
:103690003146FCF734FF22463B46FCF72AFF07463B
:1036A0008A464FF0FF3228463146FDF709F81B4A9B
:1036B00090450ADA3A465346FCF71BFF04B0002255
:1036C000BDE8F04D134BFCF717BF154A4245A8BFA4
:1036D000A8F500154FF00004B8BF124D22462B4646
:1036E000FCF707FF0646884622462B46002009497C
:1036F000FCF7FFFE04460D463A4653463046414627
:10370000FCF7F7FE04B022462B46BDE8F04DFCF76F
:10371000F3BE00000000F03F3C3800003333D33FDD
:103720000000E93F0000D23F2DE9F0414F1E00EBC1
:10373000C7010446D1E9000115461E4637F00602CE
:103740000DD02A463346FCF7DAFE7F1E04EBC70392
:10375000D3E90023FCF72CFE37F00602F1D1022F4B
:1037600025D0042F13D0062F18BFBDE8F0812A46BC
:103770003346FCF7C4FED4E90A23FCF719FE2A46B7
:103780003346FCF7BCFED4E90823FCF711FE2A46B9
:103790003346FCF7B4FED4E90623FCF709FE2A46BB
:1037A0003346FCF7ACFED4E90423FCF701FE2A46BD
:1037B0003346FCF7A4FED4E90223FCF7F9FD2A46C0
:1037C0003346FCF79CFED4E90023BDE8F041FCF74A
:1037D000EFBD00002DE9FF4D054621F0004084B00B
:1037E0000C46B0F1795F0BDA2846FFF747FD042855
:1037F00008BF00F0AFF9284608B02146BDE8F08DBB
:103800002A460B461046FCF77AFE06460F462A4625
:103810002346FCF774FE804626488A4632463B46DD
:1038200005217844FFF780FF83461098029160B32A
:10383000214A224B40465146FCF761FECDE900018A
:103840005A4640465146029BFCF759FE824688463E
:10385000DDE906014FF0FF32FCF732FF52464346E6
:10386000FCF747FE32463B46FCF749FEDDE90623FE
:10387000FCF73FFEDDE90023FCF73BFE08B02A46DB
:103880002346BDE8F04DFCF737BE0B465A4630469E
:103890003946FCF734FE084A084BFCF789FD4246DE
:1038A0005346FCF72CFE08B02A462346BDE8F04DEF
:1038B000FCF77EBD82370000495555555555C5BFAB
:1038C0002DE9F04D04468CB0904821F00047164693
:1038D00098460D460991874206DA20462946FCF7AC
:1038E00052FF002800F0AE808948B8421CDC0998DD
:1038F0000028BCBF85F0004588F00048854A864B0B
:1039000020462946FCF7F8FD04460D46324643465C
:1039100082488349FCF7EDFD22462B46FCF748FD23
:10392000002604460D46B04622462B461046194650
:10393000FCF7E5FD8B46824602460B46FCF7DFFDB1
:103940000246089077480B46009106217844FFF71D
:10395000EBFECDE90310744806217844009B089AD9
:10396000FFF7E2FE52465B46FCF7C9FDCDE90510C4
:1039700052465B4620462946FCF7C1FD0791009060
:10398000DDE90310DDE90532FCF712FD079B009A23
:10399000FCF7B5FD32464346FCF70AFD52465B464E
:1039A000FCF7ADFD32464346FCF702FD80460E466D
:1039B0005E4A5F4B07990098FCF7A1FD42463346EB
:1039C000FCF7F6FC82468B4622462B46FCF7F0FCC1
:1039D00080464F480E46B84214985BDCFCF795FED3
:1039E0000746424633460591FCF7E2FCCDE901105B
:1039F0004246334610461946FCF781FDDDE90132A7
:103A0000FCF7EFFD52465B46FCF773FD22462B4662
:103A1000FCF772FD0122FCF753FE3A46059BFCF7CA
:103A20006BFD04460D460998022101EAA070C0F121
:103A30000100FCF76AFE0CB022462B46BDE8F04DB3
:103A4000FCF75DBD1498401C384320430BD01498FC
:103A5000012812D00CB022462B46BDE8F04D0020C4
:103A60003449FCF7BEBD0CB025F000432246BDE84A
:103A7000F04D00203049FCF7B4BD20462946FFF741
:103A8000FDFB042808BF00F065F820460CB029466D
:103A9000BDE8F08D012802BF40460CB0BDE8F08DB6
:103AA00000270B463A4620462946FCF725FD52469C
:103AB0005B46FCF721FD04460D4642463346002096
:103AC0001C49FCF78EFD83463A468846334610462D
:103AD000FCF715FD0022184BFCF76AFC06468A46E7
:103AE00022462B4638464146FCF709FD32465346EE
:103AF000FCF75EFC5A464346FCF701FD0CB03A4623
:103B00004346BDE8F04DFCF753BC00000000303EDA
:103B10002894E53F182D4454FB21E93F075C1433FA
:103B200026A6813C80360000A2360000635555551C
:103B30005555D53F0000F0BF0000F03F0122FCF7D3
:103B4000BFBDFCF735BC0022134610461146FCF7FA
:103B500048BD0000024A00201107FCF7B1BD00007B
:103B600001FDFFFF02E008C8121F08C1002AFAD1B8
:103B700070477047002001E001C1121F002AFBD1ED
:103B8000704700000149086070470000FC000020F9
:103B90002DE9FF4F89B09B460446002506E0252805
:103BA0000BD05A460B999047641C6D1C2078002856
:103BB000F5D10DB02846BDE8F08F0027B8460122A8
:103BC000474900E0074314F8013F203B02FA03F0A5
:103BD0000842F7D120782E2819D114F8010F47F0A8
:103BE00004072A280ED06FF02F022078A0F13001B0
:103BF00009290CD808EB880102EB410100EB010810
:103C0000641CF2E70A98641C50F8048B0A90207830
:103C10000028CED0642808D0692806D075281ED088
:103C20005A460B9990476D1C58E00A994FF00A09C3
:103C300001C90A91002802DA40422D2102E039052B
:103C400004D52B218DF82010012103E0F90704D0C1
:103C50002021F7E78A4608AE0DE00021FAE70A992D
:103C60004FF00A0901C90A91F7E74946FCF70AFE35
:103C7000303106F8011D0028F7D1ADEB060000F148
:103C80002009780701D44FF00108C84502DDA8EBF0
:103C9000090000E000208046002706E008A85A46F8
:103CA000C05D0B9990476D1C7F1C5745F6DB04E007
:103CB00030205A460B9990476D1CB8F10001A8F1CD
:103CC0000108F5DC05E016F8010B5A460B99904700
:103CD0006D1CB9F10001A9F10109F4DC641C65E770
:103CE000092801002DE9FE4F80460F460025684651
:103CF00001F03AF800246FF00F0AE946012658F85F
:103D0000240057F82410401A00D54042FCF7EFFC7D
:103D10005146FCF741FB59F8241011F0FF4F0BD02E
:103D2000FCF7FCFA4FF07E51FCF7C0FA094920F08D
:103D30000040884205DC07E00749084407498842FB
:103D400002D306FA04F00543641C032CD7DB284693
:103D5000BDE8FE8F295C0F3E666666C19A99D90060
:103D60002DE9F04D8D4F21F0004A86B005460C46F6
:103D7000BA452ADBAAEB070028430AD088488245C7
:103D800001DC1AD1CDB106B02846BDE8F04DFFF7F1
:103D9000D5BE844A844B2846FCF7B1FB07460E4645
:103DA000824A834B28462146FCF7A9FB06B03A46D7
:103DB0003346BDE8F04DFCF7FBBA0120FFF7E2FE09
:103DC00006B0BDE8F04DFFF7BEBE7A48824542DA44
:103DD000BAF1795F0BDA2846FFF750FA042808BFDA
:103DE000FFF7B8FE284606B02146BDE8F08D2A460A
:103DF0000B461046FCF783FB834602466E480E4690
:103E00000B4606217844FFF78FFC5A463346FCF7F1
:103E100076FB804669488A465A46334604217844F0
:103E2000FFF782FC5A463346FCF769FB00223B460B
:103E3000FCF7BEFA02460B4640465146FCF7D1FB62
:103E40002A462346FCF75BFB06B02A462346BDE81C
:103E5000F04DFCF7ADBA284624F0004100223D4663
:103E60003B46FCF749FB4FF0FF32FCF729FC0646C6
:103E7000024653480F460B4606217844FFF754FC90
:103E800032463B46FCF73BFBCDE900014D4832464C
:103E90003B4604217844FFF747FC32463B46FCF79B
:103EA0002EFB00222B46FCF783FA83460291304614
:103EB000394602F007F9804643480D46504517DC65
:103EC000DDE900015A46029BFCF78BFB42462B467C
:103ED000FCF715FB42462B46FCF76AFA0122FCF779
:103EE000EFFB304A304BFCF704FB304A304B4CE0E0
:103EF0004FF0000A52460B464046FCF759FACDE90E
:103F0000031052462B4610461946FCF7F8FA324683
:103F10003B46FCF7F1FADDE90332FCF762FB0646AB
:103F20000F46DDE900015A46029BFCF75AFB834627
:103F30000091012230463946FCF7C2FB194A1A4B60
:103F4000FCF7DAFA06460F46012240462946FCF7FE
:103F5000B7FB5A46009BFCF7D2FA32463B46FCF7C9
:103F6000C8FA06460F46012250462946FCF7A8FB30
:103F70000E4DDFF858802A464346FCF7BDFA32461C
:103F80003B46FCF7B9FA2A464346FCF7B5FA002C43
:103F9000D8BF81F0004106B0BDE8F08D0000F03FD1
:103FA0000000F07F075C143326A6913C182D445482
:103FB000FB21F93F0000E03FB82F0000CE2F0000AA
:103FC000422F0000582F00003333EF3FFB21E93F21
:103FD0002DE9F84F04460D4621F000400091734949
:103FE000814211DC7249884201DC06D12CB12046A5
:103FF0002946BDE8F84FFFF7A1BD6E48002DCCBFA4
:104000006D496E49BDE8F88F6D49814211DD6D49FA
:104010008142D8BF4FF0FF366DDD20462946FFF7BD
:104020002DF9042808BFFFF795FD20462946BDE875
:10403000F88F6549654F25F00045814233DD6449BD
:10404000814219DD002632464FF080432046294642
:10405000FCF7AEF980468A46012220462946FCF745
:104060002FFB00223B46FCF744FA42465346FCF73E
:10407000B8FA04460D463EE001260022BA463B4609
:1040800020462946FCF794F980460F460022534605
:1040900020462946FCF72DFA42463B46FCF7A1FA9A
:1040A00004460D4627E04B4981421BDDDFF828A17D
:1040B00002260022534620462946FCF720FA002219
:1040C0003B46FCF775F980460F46002253462046D2
:1040D0002946FCF70EFA42463B46FCF782FA0446B4
:1040E0000D4608E0032622462B4600203B49FCF7FC
:1040F00078FA04460D4622462B4610461946FCF730
:10410000FEF98B46824602460B46FCF7F8F9074655
:104110000246334888460B4606217844FFF704FBE5
:1041200052465B46FCF7EBF982462E488B463A46F0
:10413000434605217844FFF7F7FA3A464346FCF731
:10414000DEF902460B46002E504659460CDAFCF7C3
:104150002FF922462B46FCF7D2F901B022462B4616
:10416000BDE8F04FFCF7C8B9FCF722F922462B4610
:10417000FCF7C5F91C4A7A4402EBC603D3E90023D5
:10418000FCF7B7F922462B46FCF7B3F9174A7A44F5
:1041900002EBC603D3E90023FCF7AEF9009A002A2C
:1041A000B8BF81F00041BDE8F88F00000000104466
:1041B0000000F07F182D4454FB21F93FFB21F9BF8B
:1041C0000000DC3F0000203E0000F33F0000F03F15
:1041D0000000E63F008003400000F83F0000F0BF11
:1041E0005A2D0000182D0000B62C00007E2C000077
:1041F0002DE9F04D9446CCF1000423F000464CEA42
:104200000404524F46EAD4749A46884621F000428C
:10421000BC4206D8454240EA050442EAD474BC4296
:1042200004D9BDE8F04D6246FFF78BBCAAF14055BA
:10423000A5F17F6555EA0C040BD0022404EAAA74A8
:10424000434DDFF810E144EAD87452EA000B04D081
:104250000CE0BDE8F04DFFF7BBBE002C14BF012CF5
:10426000BDE8F08D022C30D0032C32D056EA0C0B76
:104270000AD0BE4220D1BA4209D126F0804622F0AF
:1042800080423346114617E000291ADB25E0DFF8AB
:10429000C8B0FB44002C04BFDBE90001BDE8F08D91
:1042A000012C02BFDBE9000181F00041BDE8F08D87
:1042B000022C0AD0032C0CD0BA4212D1B8F1000F54
:1042C0000BDA23482549BDE8F08D28462449BDE88E
:1042D000F08D28467146BDE8F08D1D482149BDE8A6
:1042E000F08D921B12153C2AC4BF19481D490EDCE3
:1042F000BAF1000FBEBF12F13C0F0020014606DBF1
:104300006246FCF76EF921F00041FFF761FE002CD8
:1043100008BFBDE8F08D012C04BF81F00041BDE86D
:10432000F08D114A114B022C07D0FCF7E2F82A4617
:10433000BDE8F04D0A4BFCF7DCB8FCF7DAF82A468A
:10434000BDE8F04D064BFCF7D7B800000000F07F49
:10435000182D4454FB2109C0422C0000FB21F9BF59
:10436000FB210940FB21F93F075C143326A6A13C41
:1043700000B5244B21F0004287B09A42DCBF0022F6
:10438000134629DD204B9A4208D140B94FF0010075
:10439000FFF7F8FBFFF7D7FB07B000BD03DBFFF724
:1043A000CDFB07B000BD02AAFEF77CFF10F00301B1
:1043B00004BF0DF1080C9CE80F000DD0012001296D
:1043C0000ED0022914D00DF1080C00909CE80F00CB
:1043D000FFF700FA07B000BDFFF728F907B000BDEE
:1043E0000DF1080C00909CE80F00FFF7F3F905E0D1
:1043F0000DF1080C9CE80F00FFF718F907B081F0E9
:10440000004100BDFB21E93F0000F07F08B560B12D
:1044100020208DF8000028208DF8010030208DF834
:10442000020038208DF8030004E0A322042168462E
:10443000FBF7CBFE6A46042140F69E2001F060FDAA
:1044400001F02AFA08BD00003EB5044602208DF8AE
:104450000000CA208DF80100E3208DF80200092039
:104460008DF803006A460421682001F049FDA3206D
:104470008DF80000610609D5C0218DF80110C82112
:104480008DF80210C2218DF8031005E08DF80100AF
:104490008DF802008DF8030014F4C07F09D0C42108
:1044A0008DF80410CC218DF80510C6218DF806106A
:1044B00005E08DF804008DF805008DF806008DF8F4
:1044C00008008DF807008DF809006A460A2140F6B9
:1044D000A72001F015FDA0074FF0D80503D020203C
:1044E0008DF8000001E08DF800506A46012140F689
:1044F000B62001F005FDA00601D5012000E0002056
:1045000000F090F814F4C07F1ED0E0050AD5B22068
:104510008DF800008B208DF80100B6208DF8020088
:104520009B2009E0B0208DF8000080208DF801006C
:10453000B4208DF8020090208DF803006A46042113
:1045400040F6A22001F0DCFCE0074FF40B6323D01F
:10455000F8208DF800006A460121184601F0D0FCD1
:10456000FA21072000F03AFB072000F005FB0120AC
:1045700000F022FB642000F0C5FB4FF4FA7000F05D
:10458000D1FBC821254800F0BFFA282000F0D4FA5A
:104590000A2000F0E1FA06E08DF800506A46012199
:1045A000184601F0ADFCA00703D5D9208DF8000016
:1045B00001E08DF800506A46012140F23D7001F0A3
:1045C0009FFC600701D5012000E0002000F046F8C4
:1045D000E00601D5012000E00020FFF717FF104D95
:1045E00044F00800688101F057F90020A8736006C4
:1045F00001D50620A87314F4C07F02D0A87B801DCB
:10460000A87314F0140F02D0A87B1030A873A00771
:1046100002D0A87B001DA87300203EBD09E3CA029A
:10462000400200200EB54FF4976308B105A000E0EA
:1046300007A007C88DE807006A460921184601F05F
:104640005FFC0EBDB8AAB38DB4980D355D000000B7
:10465000B8AAAAAAB088C3C5C700000008B560B14F
:10466000C0208DF80000C2208DF80100C4208DF814
:104670000200C6208DF8030004E08B220421684666
:10468000FBF7A3FD6A46042140F6982001F038FCB0
:1046900001F002F908BD0000C8234FF4806202490E
:1046A00040F6F63000F0D8BFC46100082DE9FF4F96
:1046B00089B01646DDE916520024DFF834810F4632
:1046C00081462C80A24698F80E00694601F072F8E7
:1046D0004FF0FF3B18B158460DB0BDE8F08FB8F869
:1046E0000A0010F0140F3CD0009909BA21F0FF0C19
:1046F0009DF803104CEA010CC6F800C0019909BAF4
:1047000021F0FF039DF807100B43736002999DF899
:104710000B2009BA21F0FF011143B160039A9DF803
:104720000F4012BA22F0FF022243F2604FEA2C46F9
:1047300009141B1412147643494303FB036302FB61
:10474000021119441024A1F17061B1F1007F04D964
:1047500001F0A2F8A5F800A0BDE7298841F4807116
:10476000298041066A460ED51119A41D0B885BBA33
:104770003B804B885BBA7B80898849BAB98029889D
:1047800041F00801298010F4C07F11D01119A41D37
:104790000B885BBAA9F800304B885BBAA9F80230E5
:1047A000898849BAA9F80410298841F07001298044
:1047B000800718D01444E07800F0C00500F03F01F5
:1047C0006078C00707D0C80801F00701D8F80020BA
:1047D000491C02B190476078000704D5D8F804104E
:1047E00009B1A80988470C9801F0B4FB002073E7D1
:1047F000400200202DE9FF41044603A800F0E2FD3D
:10480000BDF80C00420CC3032F48018901F00300DE
:104810004D0754F8200000D54042C1F3C1058E0673
:1048200054F8255000D56D42C1F38116C90554F8DE
:10483000264000D56442A0FB0367C11701FB03714A
:1048400000FB0210810041EA9670A5FB0367E9179F
:1048500001FB037105FB02118D0045EA9671A4FB73
:104860000367E51705FB037304FB0232930043EA79
:104870009672030E8DF80030030C8DF80130030A98
:104880008DF802308DF80300080E8DF80400080C36
:104890008DF80500080A8DF80600100E8DF8080046
:1048A000100C8DF80900100A8DF80A008DF8071019
:1048B0008DF80B206A460C214FF4257001F020FB87
:1048C00004B0BDE8F08100004002002030B504468D
:1048D00013A185B007C98DE807004FF0FF35C82C3C
:1048E00016D8C820B0FBF4F1491E080A8DF80C0058
:1048F0008DF80D1003AA022140F2162001F000FBF2
:1049000030B96A460C2140F6C12001F0F9FA10B125
:10491000284605B030BD054884810020F9E7000035
:10492000FEF2ABC4AAF1DFDFBBAFDFDF4002002045
:10493000F8B53049098901F0030250F822404A07CE
:1049400000D56442C1F3C10250F822308A0600D576
:104950005B42C1F3811250F82220C80500D55242B3
:10496000254984FB0140850045EA947083FB01439F
:1049700082FB0121950F45EA8105010E8DF800109B
:10498000010C8DF80110010A8DF80210A40F8DF8AA
:10499000030044EA83046A4604214FF4747001F072
:1049A000AFFA4FF0FF3688B9200E8DF80000200CCA
:1049B0008DF80100200A8DF802008DF803406A4648
:1049C00004214FF4757001F09BFA08B13046F8BD30
:1049D000280E8DF80000280C8DF80100280A8DF8AB
:1049E00002008DF803506A4604214FF4767001F0FE
:1049F00087FAF8BD4002002009E3CA022DE9FF4111
:104A000004463CA002AB006802903BA00068039003
:104A10003AA006683AA0056804F00300195C8DF816
:104A20000010C4F3C1015A5C8DF80120C4F3811257
:104A30009B5C8DF8023003AB185C8DF80400585C69
:104A40008DF80500985C8DF806006A46032140F257
:104A5000264001F055FA4FF0FF37E0BB01AA0321D1
:104A600040F22A4001F04CFAA8BBCDE9006560078E
:104A70000BD59DF8000040F001008DF800009DF876
:104A8000040040F001008DF80400A0060BD59DF84D
:104A9000010040F001008DF801009DF8050040F094
:104AA00001008DF80500E0050BD59DF8020040F0EF
:104AB00001008DF802009DF8060040F001008DF81D
:104AC00006006A4603214FF4886001F019FA10B914
:104AD00001AA032100E004E040F2314001F010FAA5
:104AE00018B1384604B0BDE8F081064804810020C2
:104AF000F8E700004CCD6C000CC92C00365676004F
:104B000026466600400200204FF47A7290FBF2F0D5
:104B100008B54843010E8DF80010010C8DF8011006
:104B2000010A8DF802108DF803006A4604214FF443
:104B3000AE7001F0E5F908BD0521B0FBF1F008B554
:104B4000010A8DF800108DF801006A4602214FF429
:104B5000AD7001F0D5F908BD0521B0FBF1F008B545
:104B6000010A8DF800108DF801006A4602214FF409
:104B7000AC7001F0C5F908BD08B500218DF8001032
:104B8000C10702D030218DF80010810705D59DF8AE
:104B9000001041F00C018DF80010400705D59DF87C
:104BA000000040F003008DF800006A4601214FF438
:104BB000A47001F0A5F908BD08B560B1042800D9BA
:104BC0000420401E8DF800006A46012140F24F107B
:104BD00001F096F908BD0120F3E700002DE9FC4142
:104BE000054640074FF0FF367CD0B1F5C86F79D845
:104BF0000846FBF785FD3E49FBF790FB074601A8F9
:104C000000F0C2FB9DF80400022806D004280DD055
:104C100008282ED0102865D134E00E213846FBF745
:104C2000BBFBFBF79CFD84B2324907E00D213846FF
:104C3000FBF7B2FBFBF793FD2F4984B23846FBF735
:104C40003BFBFBF78CFD210A8DF8001080B28DF83C
:104C50000140010A8DF802108DF80300E8076C4648
:104C600020D0224602214FF4EA7001F049F9C8BB76
:104C700011E00C213846FBF78FFBFBF770FD84B287
:104C80001E49DBE70B213846FBF786FBFBF767FD88
:104C900084B21B49D2E7A21C02214FF4927001F0AA
:104CA0002FF9F8B9A8070DD56A4602214FF4EC7028
:104CB00001F026F9B0B9A21C02214FF4947001F062
:104CC0001FF978B9680710D56A4602214FF4EE70D3
:104CD00001F016F930B9A21C02214FF4967001F0D0
:104CE0000FF910B13046BDE8FC810020FBE7000061
:104CF00000004843000040460000C0450000404519
:104D00000000C0440521B0FBF1F008B5010A8DF8A0
:104D100000108DF801006A4602214FF4EF7001F097
:104D2000EFF808BD0521B0FBF1F008B5010A8DF8D8
:104D300000108DF801006A4602214FF4ED7001F079
:104D4000DFF808BD70B5074D0446C1B22846FEF72E
:104D50007FFA40212846FEF7E3F90028F9D02046E3
:104D600070BD0000003801402DE9FC47054625488C
:104D70006B46042240680D210078FDF759FB10B105
:104D80000720BDE8FC879DF800001C2101EAD00245
:104D90009DF80300DFF87090C0F301131A438DF8FB
:104DA00004209DF80120C0F3810301EAD2021A43D6
:104DB0008DF805209DF8022000F0030001EAD201E1
:104DC00001430024114F8DF80610A04601AE305D5E
:104DD00010B145F8249009E045F824800CE055F81E
:104DE00024003946FBF768FA45F82400305D401E80
:104DF00010F0FF003055F2D1641CE4B2032CE6D36E
:104E00000020BEE7B80000207B14AE3E1D5A843F50
:104E10002DE9FE4F05460120C14E8DF800004FF0F0
:104E200000088DF8018030680C461746817C706858
:104E30006B4602220078FDF732FB4FF0FF3A002864
:104E40007AD1C820FBF74EFF8DF8008030686B46A2
:104E50000122C17B70680078FDF721FB0028EFD1AB
:104E600030686B460122417970680078FDF717FBC6
:104E70000028E5D130686B460122817C706800789B
:104E8000FDF70DFB0028DBD130686B460122C17DA8
:104E900070680078FDF703FB0028D1D130686B46BD
:104EA0000122017970680078FDF7F9FA0028C7D16E
:104EB0004FF00C098DF8009030686B4601220179A3
:104EC00070680078FDF7EBFA002835D10F20FBF76A
:104ED00009FFB06A6B460122407A8DF80000306805
:104EE000817870680078FDF7DAFA002824D1B06A7A
:104EF0006B460122007A8DF80000306841787068B6
:104F00000078FDF7CCFA002873D1B06A807A0FB12F
:104F100040F0E0008DF8000030686B460122817996
:104F200070680078FDF7BBFA002862D12FB1B06A33
:104F3000C07A40F0E00001E04AE018208DF800005F
:104F400030686B460122C17970680078FDF7A7FAD6
:104F5000F0BB17B1C820FBF7C5FE40208DF800005C
:104F600030686B460122017970680078FDF797FA86
:104F700070BB78208DF8000030686B4601224179C3
:104F800070680078FDF78BFA10BB3220FBF7AAFEA1
:104F90008DF80080306847466B4641797068012281
:104FA0000078FDF77CFA98B931687068B046897A64
:104FB00000786B460222FDF73BFA48B9BDF80000C5
:104FC000AF6040BAB0FBF9F06F60C6B22F6000E08E
:104FD0000FE0A76067602760002739E0D8F800106D
:104FE000D8F804006B46C97A00780C22FDF720FA45
:104FF00010B15046BDE8FE8FBDF80000236840BAEE
:1050000002B2BDF802001A4440BA01B2BDF8040071
:105010002260626840BA11446160A16800B208442D
:10502000A060BDF806002B6840BA02B2BDF80800C7
:105030001A4440BA01B2BDF80A002A606A6840BA50
:1050400011446960A96800B208447F1CFFB2A860DF
:10505000B742C3D328688322C117090441EA10412B
:1050600000040023FBF780F832460023FBF77CF8AE
:10507000286068688322C117090441EA10410004CE
:105080000023FBF771F832460023FBF76DF86860E8
:10509000A8688322C117090441EA104100040023D3
:1050A000FBF762F832460023FBF75EF8A860206841
:1050B0004FF40065C117090441EA104100042A4673
:1050C0000023FBF751F832460023FBF74DF8206030
:1050D00060682A46C117090441EA10410004002310
:1050E000FBF742F832460023FBF73EF86060A06809
:1050F0002A46C117090441EA104100040023FBF7C6
:1051000033F832460023FBF72FF8A060002802DDB9
:10511000A0F5803001E000F58030A060002069E754
:10512000B80000202DE9F84F82462F488946002517
:1051300040686B46032200780D21FDF779F910B124
:105140000720BDE8F88F9DF80000002400F01F0044
:105150008DF800009DF801006F4600F01F008DF8EB
:1051600001009DF802004FF0010800F01F008DF8CB
:1051700002005AF8241059F82400081A00D54042B9
:10518000FBF7B5FA6FF00F01FBF706F90646385D3D
:10519000E0B1164ADFF858B004E059461046FBF774
:1051A0008BF80246385D401E10F0FF003855F4D1F0
:1051B00011463046FBF7B2F84FF07E51FBF776F818
:1051C0000C4920F00040884205DC07E00A483044E2
:1051D000B0F1D97F02D908FA04F00543641C032C0E
:1051E000C7DB2846ADE70000B80000200000C8413A
:1051F00054E3853F295C0F3E0000E0BE90F90010AB
:10520000002902DD4FF00000704702DA4FF0040081
:10521000704790F90110002902DD4FF0010070473E
:1052200002DA4FF00500704790F90200002802DD15
:105230004FF00200704702DA4FF0060070474FF05F
:105240000700704701244FF4A060FDF78FF9FBF7CA
:1052500045FDFCF747FD0A20FCF708F90220FBF7A3
:1052600019FE0120FBF716FEFCF7F4FEFCF776F8BA
:10527000FBF718FD4FF4E1352846FCF7F1FD284611
:10528000FCF742FE4EF66020FBF774FD47F2305506
:105290002846FBF75DFD2846FBF766FD204D0421FF
:1052A0002846FCF7BAFF1F4F260231463846FCF766
:1052B000B4FFDFF8748031464046FCF7B0FF64204D
:1052C000FBF710FD04212846FCF7A9FF31463846BC
:1052D000FCF7A5FF31464046FCF79FFF4FF4967060
:1052E000FBF700FDFCF714FBFCF73AFA42F21070F2
:1052F000FCF782FD31463846FCF78FFFFCF770FD66
:105300000028FBD00948FCF739F9E00705D1FCF784
:105310002FFCFCF7DBFBFCF77BFC641CE4B2EDE745
:105320000014014000080140001001403601002037
:105330002DE9F041134D20F00104002695F82400DA
:1053400010B10020BDE8F081A87A4FF0FF3838B1E5
:1053500020402F7C2874A04200D0464624B901E0AA
:105360004046EFE7287D40B1012000F031FE3CB11E
:1053700000F092FA20B12F74F2E7002000F028FE2E
:105380003046DFE7B80000200D4A517A41B10129CB
:1053900008D002290FD003290FD04FF0FF307047FB
:1053A000022100E004210170D17C11B10178490093
:1053B0000170002070470821F5E71021F3E7000095
:1053C000B80000200F4A517A41B1012909D00229C1
:1053D00011D0032912D04FF0FF3070474FF48041B5
:1053E00001E041F69C710180D17C11B1018849082E
:1053F0000180002070474FF48051F4E74FF40061C2
:10540000F1E70000B80000200B49097A39B1012901
:1054100007D002290AD003290BD0002103E0FA218A
:1054200001E04FF4FA710180002070474FF47A7167
:10543000F9E74FF4FA61F6E7B80000200A49097A63
:1054400041B1012908D002290AD003290AD04FF01E
:10545000FF307047054900E00549016000207047B2
:105460000449FAE70449F8E7B800002000000343C4
:105470000000834233330342333383410C49C97AFA
:10548000072913D2DFE801F01204060A0C0E1000FF
:10549000BC2100E062210180002070472A21FAE748
:1054A0001421F8E70A21F6E70521F4E70021F2E7E5
:1054B000B8000020054991F8242012B14FF0FF30C8
:1054C0007047C9890180002070470000B8000020A3
:1054D0002DE9FC414C4C80208DF8000020686B4683
:1054E0000122817C60680078FCF7D9FF4FF0FF371C
:1054F000002832D16420FBF7F5FB00258DF8005021
:1055000020686B460122817C60680078FCF7C7FF49
:10551000002870D120686B460622817D6068007883
:10552000FCF786FF002866D19DF805009DF8031062
:10553000C007400F01F0010140EA41019DF8010060
:105540004FF0010600F00100014309D0012905D008
:10555000022915D02DA0FDF781FE4CE0E67410E085
:1055600020686B460122C17860680078FCF760FF14
:1055700040BB9DF8000010F00F0020D0042822D07E
:10558000E574FF2004F80A0F4FF6FF7104F8020CCF
:1055900004F8010C6070A180A0712072A6702676BC
:1055A0006576E572A572E56025616561A576E576AB
:1055B000A5834FF4FA6000F06DFB18B907E01D48B1
:1055C000FDF74CFE17E01CA0FDF748FEC6E70220E1
:1055D00000F082FA78B92A2000F0C4FB58B93220D2
:1055E00000F0F6FB38B90020FFF7A2FE18B9002042
:1055F00000F0A6FA10B13846BDE8FC81002000F0AA
:1056000023FC0020F8E70000B8000020556E7375F9
:1056100070706F7274656420736F66747761726501
:105620002070726F64756374207265762025642E15
:105630000A0000003070000848616C662073656ED7
:105640007369746976697479207061727420666F09
:10565000756E642E0D0A00002DE9FF4FDFF898A04B
:10566000054685B09AF82500914688464FF0FF3BE5
:10567000C0BBB8F1000F35D000241FE0281B102854
:1056800000DD102086B208EB04073A46314620467A
:1056900000F036FC30BB6A463146204600F0D2F8B6
:1056A00000BB384632466946FAF7A1FD20B16FF0DB
:1056B000010009B0BDE8F08FA01984B2AC42DDD37F
:1056C0004FEA19208DF810008DF81190DAF80000DB
:1056D000544604AB817EDAF8040002220078FCF71D
:1056E000DEFE08B15846E4E7012084F8250008985A
:1056F000E0840020DDE70000B80000202DE9F84339
:1057000004464FF0FF39282844D80727284D0026A3
:105710007CB1012000F0F4FA20208DF800004FF059
:105720000108012C17D0052C18D88DF80180052010
:105730001FE0002000F0E4FA8DF800608DF80170A1
:1057400028686B460222817C68680078FCF7A7FE17
:1057500000BB2E7529E08DF80160E8E7142C04D811
:1057600002208DF801000A2003E003208DF80100DB
:10577000142000F0F7FA9DF801006B4607EB80104B
:105780008DF8010028680222817C68680078FCF7A7
:1057900086FE10B14846BDE8F8830820A8722E7333
:1057A00085F814800020FFF7C3FD0020F3E7000018
:1057B000B80000202DE9F843214E0546174696F81B
:1057C000240089464FF0FF3890B3B07A80B3306838
:1057D0006B460222817A70680078FCF729FE38BB9C
:1057E000BDF8000044BAAC4202D2002038701FE07D
:1057F00070684188B4EB510F11D9316800786B465D
:10580000497C0122FCF714FE90B99DF80000C00607
:1058100005D500F041F86FF00100BDE8F88330686D
:10582000EAB24B46C17A70680078FCF701FE08B115
:105830004046F2E7B4FBF5F0401E38700020ECE77C
:10584000B8000020F8B517000D464FF0FF341FD008
:10585000104EB17AE1B1010A8DF80010C0B28DF896
:105860000100411970684289914211D8316800786D
:105870006B46097E0222FCF712FE48B93068EAB294
:105880003B46417D70680078FCF7D2FD002800D0CF
:105890002046F8BDB8000020F8B5524D4FF0FF3655
:1058A000A87A00287CD000248DF8004028686B4638
:1058B0000122C17B68680078FCF7F1FD00286FD1F8
:1058C00028686B460122417968680078FCF7E7FD9B
:1058D000002865D128686B46012201796868007844
:1058E000FCF7DDFD00287AD195F82400C8B30C2020
:1058F0008DF8000028686B460122017968680078FD
:10590000FCF7CDFD00286AD1C0208DF80000A87AF0
:10591000C00702D0E0208DF8000028686B46012205
:10592000017968680078FCF7BAFD002857D1687CD7
:1059300018B102208DF8000001E08DF800402868C1
:105940006B460122C17B68680078FCF7A8FD38BB74
:105950008DF8004028686B4601224179686800781C
:1059600039E0FFE704208DF8000028686B4601222B
:10597000017968680078FCF792FD88B9A87C80B945
:10598000A87AC0070DD060208DF8000028686B460B
:105990000122017968680078FCF781FD00B902E016
:1059A0001DE04020F0E7687C18B101208DF8000070
:1059B00001E08DF8004028686B460122C17B6868D1
:1059C0000078FCF76CFD50B92868064B012241793C
:1059D000686810330078FCF762FD002800D030467C
:1059E000F8BD0000B80000202DE9F047394E82468E
:1059F0008AB096F824000F4620B1002000F00EF97E
:105A0000012500E0002507A8FFF7FEFC06A8FFF728
:105A1000BBFC09A8FFF732FD08A8FFF74BFD96F87D
:105A20000A9096F810800024002239465046FFF76D
:105A3000EFF910B1641C022CF6DB022C1AD0002402
:105A4000012203A96846FFF7E3F910B1641C022C98
:105A5000F6DB022C0ED003A93846FEF743F9C7B295
:105A600069465046FFF75EFB10F0FF0F4FF0000451
:105A700002D002E0002403E001240FB944F0020444
:105A8000FF2030727072F0724FF6FF71F181B072C8
:105A9000307401203073BDF81C0000F0FBF89DF855
:105AA000180000F019F8BDF8240000F05BF9BDF80B
:105AB000200000F08DF9484600F0C6F94046FFF797
:105AC00037FC15B1012000F0A9F80AB02046BDE866
:105AD000F0870000B800002038B5184C4FF0FF35B3
